:020000040800F2
:10000000A8060020990100083709000833090008F4
:1000100035090008890800087D120008000000006A
:10002000000000000000000000000000850A000839
:100030008B080008000000009D090008690C0008FA
:10004000B3010008B3010008B3010008B3010008C0
:10005000B3010008B3010008B3010008B3010008B0
:10006000B3010008B3010008B3010008B3010008A0
:10007000B3010008B3010008B3010008B301000890
:10008000B3010008B301000887080008B3010008A5
:10009000B3010008B3010008B3010008B301000870
:1000A000B3010008B3010008B3010008B301000860
:1000B000B3010008B3010008B3010008B301000850
:1000C000B3010008B3010008B3010008B301000840
:1000D000B3010008B3010008F50F0008B3010008E0
:1000E000B3010008B3010008B301000800F002F8F2
:1000F00000F043F80AA090E8000C82448344AAF17F
:100100000107DA4501D100F038F8AFF2090EBAE87C
:100110000F0013F0010F18BFFB1A43F0010318473B
:10012000D8110000F8110000103A24BF78C878C137
:10013000FAD8520724BF30C830C144BF04680C60ED
:10014000704700000023002400250026103A28BF35
:1001500078C1FBD8520728BF30C148BF0B60704739
:100160001FB500F045FB04000020002101F0AEF8AF
:10017000401C60601FBD10B510BD00F0FDFA1146B7
:10018000FFF7EEFF01F09AF800F024FB03B4FFF74D
:10019000F2FF03BC00F070FB0948804709480047A4
:1001A000FEE7FEE7FEE7FEE7FEE7FEE7FEE7FEE727
:1001B000FEE7FEE704480549054A064B7047000084
:1001C0006D0C0008ED000008A8000020A806002023
:1001D000A8020020A80200200FB400B58DB010A91D
:1001E000099000910B904FF0FF300A9000200C9086
:1001F000064878440690064878446A4607900F9966
:1002000009A800F0C5F80DB05DF814FBBB010000B3
:10021000D30100002DE9FF5F1D464FF0FF3B9146E3
:100220004FF000085F46D5E90146A96901987F1C97
:100230008847296A824688470028F6D1BAF1FF3FED
:100240000CD0002E24F4C06419DD600614D5BAF178
:100250002B0F09D0BAF12D0F0ED103E0584604B090
:10026000BDE8F09F44F48064A96901987F1C884729
:10027000761E8246002E02DDBAF1300F03D0B9F1AE
:10028000000F26D032E0A969761E01987F1C44F445
:1002900000748847002E824605DDBAF1780F06D03B
:1002A000BAF1580F03D0B9F1000F10D01EE0B9F128
:1002B000000F02D0B9F1100F18D1A969761E01986C
:1002C0007F1C24F4007488478246102002E0082036
:1002D00000E00A20814609E0A96908FB0908761EAA
:1002E00001987F1C44F4007488478246002E05DD87
:1002F0004946504600F037F80028EDDAE9690198E0
:100300008847A00502D46FF00100A8E7E00725D1D7
:10031000600613D5600502D5C8F1000000E0404634
:1003200029680A1D2A600968220501D5087015E0B0
:10033000220701D5088011E008600FE02868011D40
:1003400029600068210502D580F8008006E02107B9
:1003500002D5A0F8008001E0C0F8008038467EE7B2
:100360007047704770473A2800D2303820F020029A
:10037000412A01D3A2F13700884201D34FF0FF3068
:1003800070470000026811441378016018467047F6
:10039000D1600549794451610449794411620021D1
:1003A0001161114600F02EB8EDFFFFFF5300000071
:1003B000426842B1016811F8013B23B1521EC0E905
:1003C0000012184670470121C160881E70474268BC
:1003D0005AB1C368016843B983688B4205D0491E8E
:1003E000521CC0E90012002070474FF0FF307047E8
:1003F00010B5044600F0E6F90068005D00F0010069
:1004000010BD00002DE9F34F4FF0000A0C46564690
:100410008DB001200C9001F10C000B9062690B98DB
:1004200001219047051E2DD0252D2CD0216A88470B
:10043000C0B162690B9801219047216A8847002862
:10044000F7D16269411E0B98904700E0761CA169C4
:100450000D988847216A88470028F7D1E1690D98EF
:100460008847DBE7A1690D988847A842074601D174
:10047000761CD3E7E1690D9888477F1C02D1BAF159
:10048000000F6FD06BE162690B9800273D4639463B
:1004900090472A2804D162690B98012190470125D1
:1004A000DFF8D08262690B9801219047A0F13001FA
:1004B0000A290AD24745E5DC07EB870100EB410733
:1004C000303FDFD445F01005ECE7E90601D46FF0CA
:1004D00000476C280AD04C2814D0682815D06A2808
:1004E0000DD074281CD07A281AD01DE062690B98B0
:1004F000012190476C2802D045F0040514E045F036
:1005000002050DE045F020050AE062690B98012123
:100510009047682802D045F0080505E045F40065DD
:1005200062690B9801219047C4E9015765283DD0C5
:1005300019DC58287AD00CDC452837D004DC252873
:1005400026D041289ED131E046282FD0472899D186
:100550002CE05B2877D0612828D063287CD06428E1
:1005600023D15AE0F6E06F2848D008DC66281DD079
:1005700067281BD0692821D06E2816D127E0702863
:1005800045D0732868D0752847D078280DD14DE024
:10059000A1690D988847252805463FF469AFE169B0
:1005A0000D9888476D1C3FF46AAFD8E00D9923463B
:1005B0006A466FF00100AFF30080C5E045F04000EF
:1005C00023464FF000026060A80736D43EE0E807FB
:1005D0007FF447AF2068011D21600068290501D51F
:1005E00006701BE7290701D5068017E7A90703D581
:1005F000F117C0E9006111E706600FE745F0400020
:1006000023464FF008026060A80716D41EE040F6AB
:100610000E0125EA0100606016E045F04000234627
:100620004FF00A026060A80707D40FE045F04000D1
:100630006060A80708D5234610220D996FF00100CD
:10064000AFF3008080E007E0102223460D996FF0A1
:100650000100FFF7DFFD77E04FF0000963284F4608
:10066000C8464B46CB4602D05B2806D038E0E806A9
:1006700001D40120A060012732E06269D4F80CB0F7
:100680000B98012190475E2807D14FF00109494698
:100690006269D4F80CB00B989047216939B90021F0
:1006A0000A4603AB43F82120491C0829FADBD8B3DA
:1006B000216949B308F1010862690B98012190474B
:1006C0005D28F4D1B9F1000F09D0002003A951F839
:1006D0002020D24341F82020401C0828F7DB03AB40
:1006E0002069002820794FEA40701ED05B462246E0
:1006F000CDF80080CDE901970D9900286FF0010039
:1007000020DAAFF300801FE0C11703AA00EBD1612C
:100710004B1121F01F0102EB8302411A13680120E3
:10072000884003431360C7E719E00D99224600286B
:100730006FF00100009702DAAFF3008004E0AFF33E
:10074000008001E0AFF3008000280ADA401C06D1E7
:100750000C9820B14FF0FF300FB0BDE8F08F50463D
:10076000FAE7E90701D10AF1010A064400200C90DA
:1007700054E60000CCCCCC0C754600F035F8AE4603
:1007800005006946534620F00700854618B020B59D
:10079000FFF710FDBDE820404FF000064FF00007C6
:1007A0004FF000084FF0000B21F00701AC46ACE819
:1007B000C009ACE8C009ACE8C009ACE8C0098D4686
:1007C0007047000010B500F013F8001D10BD00BF09
:1007D000FD0A000010B50446AFF300802046BDE8D6
:1007E0001040FFF7D3BC00000048704744000020D1
:1007F00000487047640000204FF0013C50F8042B83
:1008000051F8043B9A4221D1A2EB0C03934313EA23
:10081000CC1317D150F8042B51F8043B9A4215D150
:10082000A2EB0C03934313EACC130BD150F8042B27
:1008300051F8043B9A4209D1A2EB0C03934313EA0B
:10084000CC13DBD04FF00000704700BFD01A01BAC4
:10085000B1FA81F101F0180122FA01F0CB40C1F1A7
:100860002001DBB2C0B2C01A2CFA01F3D11A9143B5
:1008700011EAC311E6D1704701491820ABBEFEE76B
:100880002600020070477047FEE770472DE9F041EF
:100890000022CC7804F00F03E40601D58C782343C2
:1008A0000C784FF00F0714F0FF0F4FF0010C1CD025
:1008B00005680CFA02F40E882640A64211D1960073
:1008C00007FA06F825EA080503FA06F848EA0505D6
:1008D000CE78282E02D0482E02D002E0446100E0FB
:1008E0000461521C082AE4D305600A88FF2A1ED935
:1008F0004568002202F108060CFA06F40E8826402C
:10090000A64210D1960007FA06F825EA080503FA70
:1009100006F848EA0505CE78282E00D14461CE7845
:10092000482E00D10461521C082AE3D34560BDE87B
:10093000F081FEE7FEE7704770B50F23C27801260D
:100940000178002A1ED0144A126802F4E062C2F54F
:10095000E062120AC2F10404D3404578A5408278CF
:100960001A402A43120101F1E02181F800240078A5
:1009700000F01F018E404009800000F1E020C0F827
:10098000006170BD01F01F0086404809800000F141
:10099000E020C0F8806170BD0CED00E07047000001
:1009A000054A002903D0D1690143D1617047D1695B
:1009B0008143D1617047000000100240054A0029C0
:1009C00003D09169014391617047916981439161BD
:1009D000704700000010024010B5264A516801F02F
:1009E0000C01254B002927D0042927D0082927D01E
:1009F0000360516801F0F0010909204B5C5C01685B
:100A0000E1404160546804F4E064240A1C5D21FA6A
:100A100004F48460546804F46054E40A1B5DD94013
:100A2000C160526802F44042920B144B1B1F9A5C47
:100A3000B1FBF2F1016110BD0360DAE70360D8E7B2
:100A4000516801F47011536803F48033022404EBFD
:100A5000914133B153689B0307D5094B594301605A
:100A6000C7E7074B59430160C3E7034B5943016094
:100A7000BFE700000010024000127A0008000020CA
:100A800000093D007047000030B589B0012140F6F3
:100A90000500FFF793FF4FF47060ADF820001820B9
:100AA0008DF8230003208DF8220008A92648FFF7BF
:100AB000EDFE44F61F60ADF818004720ADF81400B5
:100AC0000024ADF81A40ADF81640204D05A928467F
:100AD00000F042FA0121284600F0F0F86021ADF85C
:100AE00004100121ADF8061040F2DC51ADF80A10F7
:100AF000ADF80C4001A9284600F006F90821284667
:100B000000F046F901A9284600F048F908212846D6
:100B100000F088F901A9284600F08EF9082128463E
:100B200000F0CCF901A9284600F0CEF908212846AA
:100B300000F0FEF90121284600F0CCF801212846FA
:100B400000F0D4F809B030BD00080140002C01408D
:100B5000B42900D9B4214FF4FA625143B422B1FB55
:100B6000F2F101F5FA7189B20A4A012808D0022887
:100B700009D003280AD004280BD1104600F0E8B9A8
:100B8000104600F0DFB9104600F0DEB9104600F064
:100B9000DDB97047002C0140AFF300800CB5002296
:100BA000019200922748016841F4803101604FF4BE
:100BB000A063016801F4003100910199491C019181
:100BC000009911B901999942F3D10168890302D5BD
:100BD0000121009100E000920099012930D11A49C9
:100BE0000A6842F010020A600A6822F003020A60F2
:100BF0000A6842F002020A6041684160416841604F
:100C0000416841F480614160416821F47C11416098
:100C1000416841F4E8114160016841F08071016070
:100C200001688901FCD5416821F0030141604168F8
:100C300041F0020141604168C1F381010229FAD10A
:100C40000CBD000000100240002002404FF0E021E7
:100C5000042804D0086920F004000861704708697E
:100C600040F00400086170477047000010B50F485D
:100C7000016841F00101016041680D4A1140416085
:100C800001680C4A11400160016821F48021016073
:100C9000416821F4FE0141604FF41F018160FFF7BC
:100CA0007BFF05494FF00060086010BD0010024056
:100CB0000000FFF8FFFFF6FE08ED00E0002904D079
:100CC000018841F0800101807047018821F0800196
:100CD00001807047002904D0018841F001010180A2
:100CE0007047018821F0010101807047002905D07B
:100CF00030F8441F41F400410180704730F8441F30
:100D0000C1F30E010180704730B5028C22F0010260
:100D10000284028C8388048B24F0700424F0030581
:100D20000C882C4322F002020D8915434A882A437D
:100D3000124DA8420BD0124DA84208D0114DA84226
:100D400005D0114DA84202D0104DA8420FD122F07B
:100D500008054A892A4322F004058A882A4323F495
:100D6000807323F400738D891D43CB892B438380CB
:100D70000483C9888186028430BD0000002C0140B4
:100D8000003401400040014000440140004801405F
:100D9000028B22F008020A430283704770B5028C6E
:100DA00022F010020284028C8388048B24F4E04435
:100DB00024F440760D884FF6FF7404EA0525354388
:100DC00022F020020E8904EA061616434A8804EA35
:100DD00002123243114EB04202D0114EB04217D12E
:100DE00022F080024E8904EA0616164326F04006D9
:100DF0008A8804EA0212324323F4806323F40063F6
:100E00008E8904EA86061E43CB8904EA83033343B2
:100E100083800583C9880187028470BD002C01404E
:100E200000340140028B22F400624FF6FF7303EAA4
:100E3000012111430183704770B5028C22F4807246
:100E40000284028C8388848B24F0700424F00304D1
:100E50000D88254322F400720E894FF6FF7404EAD0
:100E6000062616434A8804EA02223243114EB04253
:100E700002D0114EB04217D122F400664A8904EA2A
:100E80000222324322F480668A8804EA0222324334
:100E900023F4805323F400538E8904EA06161E437C
:100EA000CB8904EA0313334383808583C988818710
:100EB000028470BD002C014000340140828B22F07E
:100EC00008020A438283704770B5028C22F4805274
:100ED0000284058C8288838B23F4E04323F44076DC
:100EE0000C884FF6FF7303EA0424344325F40055BD
:100EF0000E8903EA06362E434D8803EA053535434D
:100F0000094EB04202D0094EB04205D122F48046CB
:100F10008A8903EA8212324382808483C988A0F8D6
:100F20004010058470BD0000002C014000340140D9
:100F3000828B22F400624FF6FF7303EA0121114312
:100F4000818370478186704701877047818770472A
:100F5000A0F840107047000030B502881B4C1C4DB3
:100F6000A0420DD0A8420BD0B0F1804F08D0194B51
:100F7000984205D0184B984202D0184B984203D1A2
:100F800022F070034A881A43154B984206D0154B3D
:100F9000984203D022F44073CA881A4302808A8898
:100FA00082850A880285A0420AD0A84208D00E4A4B
:100FB000904205D00D4A904202D00D4A904201D194
:100FC000097A01860121818230BD0000002C014098
:100FD000003401400004004000080040000C0040C4
:100FE0000010004000140040004001400044014057
:100FF0000048014030B587B01C4C40F225512046D6
:1010000000F09EF800280BD0204600F033F9C0B263
:10101000174A184C0A2805D021784B1C23705054CD
:1010200007B030BD20780025155403A804A9CDE9E8
:10103000001005AB06AA10A10D48FFF7CDF80698E1
:1010400081B20120FFF784FD059881B20220FFF7ED
:101050007FFD049881B20320FFF77AFD039881B2E7
:101060000420FFF775FD2570DAE70000004400401A
:10107000300000202C0000202564202564202564F9
:101080002025640030B587B001210420FFF796FCCD
:1010900001214804FFF784FC0424ADF8184018200F
:1010A0008DF81B0003208DF81A001D4D06A9284657
:1010B000FFF7ECFB0821ADF818108DF81B4006A9CE
:1010C0002846FFF7E3FB4FF4E13002900020ADF833
:1010D0000C00ADF80E00ADF810000C21ADF81210A8
:1010E000ADF814000F4C02A9204600F065F801226B
:1010F00040F22551204600F043F826218DF80410D7
:1011000001218DF805108DF806108DF8071001A843
:10111000FFF712FC0121204600F006F807B030BDB1
:101120000008014000440040002904D0818941F4B6
:10113000005181817047818921F40051818170477C
:1011400070B5002440F66A12C1F3421301F01F0586
:10115000012606FA05F2012B0CD0022B0DD0838A52
:101160001340090A8E40008830400BB100B10124C1
:10117000204670BD83891340F3E7038A1340F0E7EC
:1011800010B540F66A13C1F3421301F01F040121A8
:10119000A140012B07D0022B07D014303AB10268CE
:1011A0000A43026010BD0C30F8E71030F6E7026821
:1011B0008A43026010BD000030B585B004460D467C
:1011C000208A4CF6FF710840E98801432182A089FA
:1011D0004EF6F3110840A9882A8911436A8902430F
:1011E0001143A181A08A4FF6FF410840A98901431C
:1011F000A1826846FFF7F0FB1D48844201D10398A5
:1012000000E00298A189090408D500EBC00101EBB8
:10121000001029684900B0FBF1F007E000EBC001C5
:1012200001EB001029688900B0FBF1F06422B0FBEB
:10123000F2F109010B096FF018056B4300EB830015
:10124000A3891D044FF0320307D503EBC000B0FBA8
:10125000F2F000F00700084306E003EB0010B0FBDB
:10126000F2F000F00F000843208105B030BD00000F
:10127000003801408088C0F308007047FEE7000096
:1012800010B56FF00400FFF7E1FC09480949006858
:10129000B0FBF1F00849C0B2087000EB4002C2EBAD
:1012A000C0104FF6FF7202EAC000488010BD000077
:1012B0001800002000127A0000000020FFF7E0FF75
:1012C000FFF7E2FBFFF7DEFEFEE7000010B50029A6
:1012D0000AD00878002807D005487844FFF78CFA30
:1012E000002801D0002010BD0248784410BD000045
:1012F0003E00000036000000281400080000002016
:1013000030000000280100085814000830000020B8
:1013100078060000440100081001000043000000AE
:10132000F8FFFFFF00404040404040404040414106
:1013300041414140404040404040404040404040AA
:101340004040404040050202020202020202020244
:101350000202020202202020202020202020200241
:1013600002020202020290909090909010101010D1
:10137000101010101010101010101010101010106D
:101380000202020202028888888888880808080801
:1013900008080808080808080808080808080808CD
:1013A00002020202400000000000000000000000F5
:1013B000000000000000000000000000000000002D
:1013C000000000000000000000000000000000001D
:1013D000000000000000000000000000000000000D
:1013E00000000000000000000000000000000000FD
:1013F00000000000000000000000000000000000ED
:1014000000000000000000000000000000000000DC
:1014100000000000000000000000000000000000CC
:1014200000000000000000000000000002040608A8
:10143000000000000102030401020304060708097A
:1014400000A24A04000000000000000001020304A2
:08145000060708090000000076
:04000005080000ED02
:00000001FF
